{
  "transactions": [
    {
      "hash": "0x0626b821b428df3f39e619f4042dc2869b4f1edba39c755c8153cfce561accba",
      "transactionType": "CALL",
      "contractName": null,
      "contractAddress": "0xbdfdc2b8f4808047a5ceeb56870a2a555ce7cecf",
      "function": "addSupportedAssets(address[],bytes32[])",
      "arguments": [
        "[]",
        "[]"
      ],
      "transaction": {
        "from": "0x2532a0d50efd162291801a0dc23b8f8c98fcbafa",
        "to": "0xbdfdc2b8f4808047a5ceeb56870a2a555ce7cecf",
        "gas": "0x86cc",
        "value": "0x0",
        "input": "0x289f23c90000000000000000000000000000000000000000000000000000000000000040000000000000000000000000000000000000000000000000000000000000006000000000000000000000000000000000000000000000000000000000000000000000000000000000000000000000000000000000000000000000000000000000",
        "nonce": "0xd",
        "chainId": "0x1b59"
      },
      "additionalContracts": [],
      "isFixedGasLimit": false
    }
  ],
  "receipts": [
    {
      "status": "0x1",
      "cumulativeGasUsed": "0x6198",
      "logs": [],
      "logsBloom": "0x00000000000000000000000000000000000000000000000000000000000000000000000000000000000000000000000000000000000000000000000000000000000000000000000000000000000000000000000000000000000000000000000000000000000000000000000000000000000000000000000000000000000000000000000000000000000000000000000000000000000000000000000000000000000000000000000000000000000000000000000000000000000000000000000000000000000000000000000000000000000000000000000000000000000000000000000000000000000000000000000000000000000000000000000000000000",
      "type": "0x2",
      "transactionHash": "0x0626b821b428df3f39e619f4042dc2869b4f1edba39c755c8153cfce561accba",
      "transactionIndex": "0x0",
      "blockHash": "0x5627c42cf52b5bac810c45047e5613435811610c58794d034487151e6014c50d",
      "blockNumber": "0xdaa7ab",
      "gasUsed": "0x6198",
      "effectiveGasPrice": "0x25706d480",
      "from": "0x2532a0d50efd162291801a0dc23b8f8c98fcbafa",
      "to": "0xbdfdc2b8f4808047a5ceeb56870a2a555ce7cecf",
      "contractAddress": null
    }
  ],
  "libraries": [],
  "pending": [],
  "returns": {},
  "timestamp": 1764369714,
  "chain": 7001,
  "commit": "4f771ba"
}