{
  "transactions": [
    {
      "hash": "0x4194e4c216f7f034deb4e47bb4cc2f88e1d48a047c23b240fc555ab6805dc056",
      "transactionType": "CALL",
      "contractName": null,
      "contractAddress": "0xbdfdc2b8f4808047a5ceeb56870a2a555ce7cecf",
      "function": "addSupportedAssets(address[],bytes32[])",
      "arguments": [
        "[0x05BA149A7bd6dC1F937fA9046A9e05C05f3b18b0, 0xD45F47412073b75B7c70728aD9A45Dee0ee01bac, 0xcC683A782f4B30c138787CB5576a86AF66fdc31d, 0xdbfF6471a79E5374d771922F2194eccc42210B9F, 0xd97B1de3619ed2c6BEb3860147E30cA8A7dC9891]",
        "[0xff61491a931112ddf1bd8147cd1b641375f79f5825126d665480874634fd0ace, 0x2b89b9dc8fdf9f34709a5b106b472f0f39bb6ca9ce04b0fd7f2e971688e2e53b, 0xeaa020c61cc479712813461ce153894a96a6c00b21ed0cfc2798d1f9a9e9c94a, 0xe62df6c8b4a85fe1a67db44dc12de5db330f7ac66b72dc658afedf0f4a415b43, 0x2f95862b045670cd22bee3114c39763a4a08beeb663b145d283c31d7d1101c4f]"
      ],
      "transaction": {
        "from": "0x2532a0d50efd162291801a0dc23b8f8c98fcbafa",
        "to": "0xbdfdc2b8f4808047a5ceeb56870a2a555ce7cecf",
        "gas": "0x839cd",
        "value": "0x0",
        "input": "0x289f23c900000000000000000000000000000000000000000000000000000000000000400000000000000000000000000000000000000000000000000000000000000100000000000000000000000000000000000000000000000000000000000000000500000000000000000000000005ba149a7bd6dc1f937fa9046a9e05c05f3b18b0000000000000000000000000d45f47412073b75b7c70728ad9a45dee0ee01bac000000000000000000000000cc683a782f4b30c138787cb5576a86af66fdc31d000000000000000000000000dbff6471a79e5374d771922f2194eccc42210b9f000000000000000000000000d97b1de3619ed2c6beb3860147e30ca8a7dc98910000000000000000000000000000000000000000000000000000000000000005ff61491a931112ddf1bd8147cd1b641375f79f5825126d665480874634fd0ace2b89b9dc8fdf9f34709a5b106b472f0f39bb6ca9ce04b0fd7f2e971688e2e53beaa020c61cc479712813461ce153894a96a6c00b21ed0cfc2798d1f9a9e9c94ae62df6c8b4a85fe1a67db44dc12de5db330f7ac66b72dc658afedf0f4a415b432f95862b045670cd22bee3114c39763a4a08beeb663b145d283c31d7d1101c4f",
        "nonce": "0xf",
        "chainId": "0x1b59"
      },
      "additionalContracts": [],
      "isFixedGasLimit": false
    }
  ],
  "receipts": [
    {
      "status": "0x1",
      "cumulativeGasUsed": "0x5f490",
      "logs": [],
      "logsBloom": "0x00000000000000000000000000000000000000000000000000000000000000000000000000000000000000000000000000000000000000000000000000000000000000000000000000000000000000000000000000000000000000000000000000000000000000000000000000000000000000000000000000000000000000000000000000000000000000000000000000000000000000000000000000000000000000000000000000000000000000000000000000000000000000000000000000000000000000000000000000000000000000000000000000000000000000000000000000000000000000000000000000000000000000000000000000000000",
      "type": "0x2",
      "transactionHash": "0x4194e4c216f7f034deb4e47bb4cc2f88e1d48a047c23b240fc555ab6805dc056",
      "transactionIndex": "0x0",
      "blockHash": "0x6552721787fcdf157a81a1c132d7e60ca2938ae908661e94bfbe5e5f5a813a38",
      "blockNumber": "0xe1c6f7",
      "gasUsed": "0x5f490",
      "effectiveGasPrice": "0x2540be401",
      "from": "0x2532a0d50efd162291801a0dc23b8f8c98fcbafa",
      "to": "0xbdfdc2b8f4808047a5ceeb56870a2a555ce7cecf",
      "contractAddress": null
    }
  ],
  "libraries": [],
  "pending": [],
  "returns": {},
  "timestamp": 1765663061,
  "chain": 7001,
  "commit": "158070a"
}